{
  "_format": "hh-sol-artifact-1",
  "contractName": "DragonBallSuperToken",
  "sourceName": "contracts/DragonBallSuperToken.sol",
  "abi": [
    {
      "anonymous": false,
      "inputs": [
        {
          "indexed": true,
          "internalType": "address",
          "name": "owner",
          "type": "address"
        },
        {
          "indexed": true,
          "internalType": "address",
          "name": "spender",
          "type": "address"
        },
        {
          "indexed": false,
          "internalType": "uint256",
          "name": "value",
          "type": "uint256"
        }
      ],
      "name": "Approval",
      "type": "event"
    },
    {
      "anonymous": false,
      "inputs": [
        {
          "indexed": true,
          "internalType": "address",
          "name": "from",
          "type": "address"
        },
        {
          "indexed": true,
          "internalType": "address",
          "name": "to",
          "type": "address"
        },
        {
          "indexed": false,
          "internalType": "uint256",
          "name": "value",
          "type": "uint256"
        }
      ],
      "name": "Transfer",
      "type": "event"
    },
    {
      "inputs": [
        {
          "internalType": "address",
          "name": "owner",
          "type": "address"
        },
        {
          "internalType": "address",
          "name": "spender",
          "type": "address"
        }
      ],
      "name": "allowance",
      "outputs": [
        {
          "internalType": "uint256",
          "name": "",
          "type": "uint256"
        }
      ],
      "stateMutability": "view",
      "type": "function"
    },
    {
      "inputs": [
        {
          "internalType": "address",
          "name": "spender",
          "type": "address"
        },
        {
          "internalType": "uint256",
          "name": "amount",
          "type": "uint256"
        }
      ],
      "name": "approve",
      "outputs": [
        {
          "internalType": "bool",
          "name": "",
          "type": "bool"
        }
      ],
      "stateMutability": "nonpayable",
      "type": "function"
    },
    {
      "inputs": [
        {
          "internalType": "address",
          "name": "account",
          "type": "address"
        }
      ],
      "name": "balanceOf",
      "outputs": [
        {
          "internalType": "uint256",
          "name": "",
          "type": "uint256"
        }
      ],
      "stateMutability": "view",
      "type": "function"
    },
    {
      "inputs": [],
      "name": "decimals",
      "outputs": [
        {
          "internalType": "uint8",
          "name": "",
          "type": "uint8"
        }
      ],
      "stateMutability": "view",
      "type": "function"
    },
    {
      "inputs": [
        {
          "internalType": "address",
          "name": "spender",
          "type": "address"
        },
        {
          "internalType": "uint256",
          "name": "subtractedValue",
          "type": "uint256"
        }
      ],
      "name": "decreaseAllowance",
      "outputs": [
        {
          "internalType": "bool",
          "name": "",
          "type": "bool"
        }
      ],
      "stateMutability": "nonpayable",
      "type": "function"
    },
    {
      "inputs": [
        {
          "internalType": "address",
          "name": "spender",
          "type": "address"
        },
        {
          "internalType": "uint256",
          "name": "addedValue",
          "type": "uint256"
        }
      ],
      "name": "increaseAllowance",
      "outputs": [
        {
          "internalType": "bool",
          "name": "",
          "type": "bool"
        }
      ],
      "stateMutability": "nonpayable",
      "type": "function"
    },
    {
      "inputs": [
        {
          "internalType": "uint256",
          "name": "initialSupply",
          "type": "uint256"
        }
      ],
      "name": "initialize",
      "outputs": [],
      "stateMutability": "nonpayable",
      "type": "function"
    },
    {
      "inputs": [],
      "name": "name",
      "outputs": [
        {
          "internalType": "string",
          "name": "",
          "type": "string"
        }
      ],
      "stateMutability": "view",
      "type": "function"
    },
    {
      "inputs": [],
      "name": "symbol",
      "outputs": [
        {
          "internalType": "string",
          "name": "",
          "type": "string"
        }
      ],
      "stateMutability": "view",
      "type": "function"
    },
    {
      "inputs": [],
      "name": "totalSupply",
      "outputs": [
        {
          "internalType": "uint256",
          "name": "",
          "type": "uint256"
        }
      ],
      "stateMutability": "view",
      "type": "function"
    },
    {
      "inputs": [
        {
          "internalType": "address",
          "name": "to",
          "type": "address"
        },
        {
          "internalType": "uint256",
          "name": "amount",
          "type": "uint256"
        }
      ],
      "name": "transfer",
      "outputs": [
        {
          "internalType": "bool",
          "name": "",
          "type": "bool"
        }
      ],
      "stateMutability": "nonpayable",
      "type": "function"
    },
    {
      "inputs": [
        {
          "internalType": "address",
          "name": "from",
          "type": "address"
        },
        {
          "internalType": "address",
          "name": "to",
          "type": "address"
        },
        {
          "internalType": "uint256",
          "name": "amount",
          "type": "uint256"
        }
      ],
      "name": "transferFrom",
      "outputs": [
        {
          "internalType": "bool",
          "name": "",
          "type": "bool"
        }
      ],
      "stateMutability": "nonpayable",
      "type": "function"
    }
  ],
  "bytecode": "0x608060405234801561001057600080fd5b50611996806100206000396000f3fe608060405234801561001057600080fd5b50600436106100b45760003560e01c806370a082311161007157806370a08231146101a357806395d89b41146101d3578063a457c2d7146101f1578063a9059cbb14610221578063dd62ed3e14610251578063fe4b84df14610281576100b4565b806306fdde03146100b9578063095ea7b3146100d757806318160ddd1461010757806323b872dd14610125578063313ce567146101555780633950935114610173575b600080fd5b6100c161029d565b6040516100ce9190611335565b60405180910390f35b6100f160048036038101906100ec91906110f1565b61032f565b6040516100fe919061131a565b60405180910390f35b61010f610352565b60405161011c9190611497565b60405180910390f35b61013f600480360381019061013a91906110a2565b61035c565b60405161014c919061131a565b60405180910390f35b61015d61038b565b60405161016a91906114b2565b60405180910390f35b61018d600480360381019061018891906110f1565b610394565b60405161019a919061131a565b60405180910390f35b6101bd60048036038101906101b8919061103d565b61043e565b6040516101ca9190611497565b60405180910390f35b6101db610487565b6040516101e89190611335565b60405180910390f35b61020b600480360381019061020691906110f1565b610519565b604051610218919061131a565b60405180910390f35b61023b600480360381019061023691906110f1565b610603565b604051610248919061131a565b60405180910390f35b61026b60048036038101906102669190611066565b610626565b6040516102789190611497565b60405180910390f35b61029b6004803603810190610296919061112d565b6106ad565b005b6060603680546102ac906115c7565b80601f01602080910402602001604051908101604052809291908181526020018280546102d8906115c7565b80156103255780601f106102fa57610100808354040283529160200191610325565b820191906000526020600020905b81548152906001019060200180831161030857829003601f168201915b5050505050905090565b60008061033a610810565b9050610347818585610818565b600191505092915050565b6000603554905090565b600080610367610810565b90506103748582856109e3565b61037f858585610a6f565b60019150509392505050565b60006012905090565b60008061039f610810565b9050610433818585603460008673ffffffffffffffffffffffffffffffffffffffff1673ffffffffffffffffffffffffffffffffffffffff16815260200190815260200160002060008973ffffffffffffffffffffffffffffffffffffffff1673ffffffffffffffffffffffffffffffffffffffff1681526020019081526020016000205461042e91906114e9565b610818565b600191505092915050565b6000603360008373ffffffffffffffffffffffffffffffffffffffff1673ffffffffffffffffffffffffffffffffffffffff168152602001908152602001600020549050919050565b606060378054610496906115c7565b80601f01602080910402602001604051908101604052809291908181526020018280546104c2906115c7565b801561050f5780601f106104e45761010080835404028352916020019161050f565b820191906000526020600020905b8154815290600101906020018083116104f257829003601f168201915b5050505050905090565b600080610524610810565b90506000603460008373ffffffffffffffffffffffffffffffffffffffff1673ffffffffffffffffffffffffffffffffffffffff16815260200190815260200160002060008673ffffffffffffffffffffffffffffffffffffffff1673ffffffffffffffffffffffffffffffffffffffff168152602001908152602001600020549050838110156105ea576040517f08c379a00000000000000000000000000000000000000000000000000000000081526004016105e190611457565b60405180910390fd5b6105f78286868403610818565b60019250505092915050565b60008061060e610810565b905061061b818585610a6f565b600191505092915050565b6000603460008473ffffffffffffffffffffffffffffffffffffffff1673ffffffffffffffffffffffffffffffffffffffff16815260200190815260200160002060008373ffffffffffffffffffffffffffffffffffffffff1673ffffffffffffffffffffffffffffffffffffffff16815260200190815260200160002054905092915050565b600060019054906101000a900460ff166106d55760008054906101000a900460ff16156106de565b6106dd610cf3565b5b61071d576040517f08c379a0000000000000000000000000000000000000000000000000000000008152600401610714906113d7565b60405180910390fd5b60008060019054906101000a900460ff16159050801561076d576001600060016101000a81548160ff02191690831515021790555060016000806101000a81548160ff0219169083151502179055505b6107e16040518060400160405280601781526020017f447261676f6e2042616c6c20537570657220546f6b656e0000000000000000008152506040518060400160405280600381526020017f4442530000000000000000000000000000000000000000000000000000000000815250610d04565b6107eb3383610d61565b801561080c5760008060016101000a81548160ff0219169083151502179055505b5050565b600033905090565b600073ffffffffffffffffffffffffffffffffffffffff168373ffffffffffffffffffffffffffffffffffffffff161415610888576040517f08c379a000000000000000000000000000000000000000000000000000000000815260040161087f90611417565b60405180910390fd5b600073ffffffffffffffffffffffffffffffffffffffff168273ffffffffffffffffffffffffffffffffffffffff1614156108f8576040517f08c379a00000000000000000000000000000000000000000000000000000000081526004016108ef90611377565b60405180910390fd5b80603460008573ffffffffffffffffffffffffffffffffffffffff1673ffffffffffffffffffffffffffffffffffffffff16815260200190815260200160002060008473ffffffffffffffffffffffffffffffffffffffff1673ffffffffffffffffffffffffffffffffffffffff168152602001908152602001600020819055508173ffffffffffffffffffffffffffffffffffffffff168373ffffffffffffffffffffffffffffffffffffffff167f8c5be1e5ebec7d5bd14f71427d1e84f3dd0314c0f7b2291e5b200ac8c7c3b925836040516109d69190611497565b60405180910390a3505050565b60006109ef8484610626565b90507fffffffffffffffffffffffffffffffffffffffffffffffffffffffffffffffff8114610a695781811015610a5b576040517f08c379a0000000000000000000000000000000000000000000000000000000008152600401610a5290611397565b60405180910390fd5b610a688484848403610818565b5b50505050565b600073ffffffffffffffffffffffffffffffffffffffff168373ffffffffffffffffffffffffffffffffffffffff161415610adf576040517f08c379a0000000000000000000000000000000000000000000000000000000008152600401610ad6906113f7565b60405180910390fd5b600073ffffffffffffffffffffffffffffffffffffffff168273ffffffffffffffffffffffffffffffffffffffff161415610b4f576040517f08c379a0000000000000000000000000000000000000000000000000000000008152600401610b4690611357565b60405180910390fd5b610b5a838383610ec2565b6000603360008573ffffffffffffffffffffffffffffffffffffffff1673ffffffffffffffffffffffffffffffffffffffff16815260200190815260200160002054905081811015610be1576040517f08c379a0000000000000000000000000000000000000000000000000000000008152600401610bd8906113b7565b60405180910390fd5b818103603360008673ffffffffffffffffffffffffffffffffffffffff1673ffffffffffffffffffffffffffffffffffffffff1681526020019081526020016000208190555081603360008573ffffffffffffffffffffffffffffffffffffffff1673ffffffffffffffffffffffffffffffffffffffff1681526020019081526020016000206000828254610c7691906114e9565b925050819055508273ffffffffffffffffffffffffffffffffffffffff168473ffffffffffffffffffffffffffffffffffffffff167fddf252ad1be2c89b69c2b068fc378daa952ba7f163c4a11628f55a4df523b3ef84604051610cda9190611497565b60405180910390a3610ced848484610ec7565b50505050565b6000610cfe30610ecc565b15905090565b600060019054906101000a900460ff16610d53576040517f08c379a0000000000000000000000000000000000000000000000000000000008152600401610d4a90611437565b60405180910390fd5b610d5d8282610eef565b5050565b600073ffffffffffffffffffffffffffffffffffffffff168273ffffffffffffffffffffffffffffffffffffffff161415610dd1576040517f08c379a0000000000000000000000000000000000000000000000000000000008152600401610dc890611477565b60405180910390fd5b610ddd60008383610ec2565b8060356000828254610def91906114e9565b9250508190555080603360008473ffffffffffffffffffffffffffffffffffffffff1673ffffffffffffffffffffffffffffffffffffffff1681526020019081526020016000206000828254610e4591906114e9565b925050819055508173ffffffffffffffffffffffffffffffffffffffff16600073ffffffffffffffffffffffffffffffffffffffff167fddf252ad1be2c89b69c2b068fc378daa952ba7f163c4a11628f55a4df523b3ef83604051610eaa9190611497565b60405180910390a3610ebe60008383610ec7565b5050565b505050565b505050565b6000808273ffffffffffffffffffffffffffffffffffffffff163b119050919050565b600060019054906101000a900460ff16610f3e576040517f08c379a0000000000000000000000000000000000000000000000000000000008152600401610f3590611437565b60405180910390fd5b8160369080519060200190610f54929190610f70565b508060379080519060200190610f6b929190610f70565b505050565b828054610f7c906115c7565b90600052602060002090601f016020900481019282610f9e5760008555610fe5565b82601f10610fb757805160ff1916838001178555610fe5565b82800160010185558215610fe5579182015b82811115610fe4578251825591602001919060010190610fc9565b5b509050610ff29190610ff6565b5090565b5b8082111561100f576000816000905550600101610ff7565b5090565b60008135905061102281611932565b92915050565b60008135905061103781611949565b92915050565b60006020828403121561104f57600080fd5b600061105d84828501611013565b91505092915050565b6000806040838503121561107957600080fd5b600061108785828601611013565b925050602061109885828601611013565b9150509250929050565b6000806000606084860312156110b757600080fd5b60006110c586828701611013565b93505060206110d686828701611013565b92505060406110e786828701611028565b9150509250925092565b6000806040838503121561110457600080fd5b600061111285828601611013565b925050602061112385828601611028565b9150509250929050565b60006020828403121561113f57600080fd5b600061114d84828501611028565b91505092915050565b61115f81611551565b82525050565b6000611170826114cd565b61117a81856114d8565b935061118a818560208601611594565b61119381611657565b840191505092915050565b60006111ab6023836114d8565b91506111b682611668565b604082019050919050565b60006111ce6022836114d8565b91506111d9826116b7565b604082019050919050565b60006111f1601d836114d8565b91506111fc82611706565b602082019050919050565b60006112146026836114d8565b915061121f8261172f565b604082019050919050565b6000611237602e836114d8565b91506112428261177e565b604082019050919050565b600061125a6025836114d8565b9150611265826117cd565b604082019050919050565b600061127d6024836114d8565b91506112888261181c565b604082019050919050565b60006112a0602b836114d8565b91506112ab8261186b565b604082019050919050565b60006112c36025836114d8565b91506112ce826118ba565b604082019050919050565b60006112e6601f836114d8565b91506112f182611909565b602082019050919050565b6113058161157d565b82525050565b61131481611587565b82525050565b600060208201905061132f6000830184611156565b92915050565b6000602082019050818103600083015261134f8184611165565b905092915050565b600060208201905081810360008301526113708161119e565b9050919050565b60006020820190508181036000830152611390816111c1565b9050919050565b600060208201905081810360008301526113b0816111e4565b9050919050565b600060208201905081810360008301526113d081611207565b9050919050565b600060208201905081810360008301526113f08161122a565b9050919050565b600060208201905081810360008301526114108161124d565b9050919050565b6000602082019050818103600083015261143081611270565b9050919050565b6000602082019050818103600083015261145081611293565b9050919050565b60006020820190508181036000830152611470816112b6565b9050919050565b60006020820190508181036000830152611490816112d9565b9050919050565b60006020820190506114ac60008301846112fc565b92915050565b60006020820190506114c7600083018461130b565b92915050565b600081519050919050565b600082825260208201905092915050565b60006114f48261157d565b91506114ff8361157d565b9250827fffffffffffffffffffffffffffffffffffffffffffffffffffffffffffffffff03821115611534576115336115f9565b5b828201905092915050565b600061154a8261155d565b9050919050565b60008115159050919050565b600073ffffffffffffffffffffffffffffffffffffffff82169050919050565b6000819050919050565b600060ff82169050919050565b60005b838110156115b2578082015181840152602081019050611597565b838111156115c1576000848401525b50505050565b600060028204905060018216806115df57607f821691505b602082108114156115f3576115f2611628565b5b50919050565b7f4e487b7100000000000000000000000000000000000000000000000000000000600052601160045260246000fd5b7f4e487b7100000000000000000000000000000000000000000000000000000000600052602260045260246000fd5b6000601f19601f8301169050919050565b7f45524332303a207472616e7366657220746f20746865207a65726f206164647260008201527f6573730000000000000000000000000000000000000000000000000000000000602082015250565b7f45524332303a20617070726f766520746f20746865207a65726f20616464726560008201527f7373000000000000000000000000000000000000000000000000000000000000602082015250565b7f45524332303a20696e73756666696369656e7420616c6c6f77616e6365000000600082015250565b7f45524332303a207472616e7366657220616d6f756e742065786365656473206260008201527f616c616e63650000000000000000000000000000000000000000000000000000602082015250565b7f496e697469616c697a61626c653a20636f6e747261637420697320616c72656160008201527f647920696e697469616c697a6564000000000000000000000000000000000000602082015250565b7f45524332303a207472616e736665722066726f6d20746865207a65726f20616460008201527f6472657373000000000000000000000000000000000000000000000000000000602082015250565b7f45524332303a20617070726f76652066726f6d20746865207a65726f2061646460008201527f7265737300000000000000000000000000000000000000000000000000000000602082015250565b7f496e697469616c697a61626c653a20636f6e7472616374206973206e6f74206960008201527f6e697469616c697a696e67000000000000000000000000000000000000000000602082015250565b7f45524332303a2064656372656173656420616c6c6f77616e63652062656c6f7760008201527f207a65726f000000000000000000000000000000000000000000000000000000602082015250565b7f45524332303a206d696e7420746f20746865207a65726f206164647265737300600082015250565b61193b8161153f565b811461194657600080fd5b50565b6119528161157d565b811461195d57600080fd5b5056fea2646970667358221220fddd6128b178d366bc526eb60dafd8a5e442d2faf9aba0d787a1cbe19f37448f64736f6c63430008020033",
  "linkReferences": {},
  "deployedLinkReferences": {}
}