{
  "_format": "hh-sol-artifact-1",
  "contractName": "DragonBallSuperLedger",
  "sourceName": "contracts/DragonBallSuperLedger.sol",
  "abi": [
    {
      "anonymous": false,
      "inputs": [
        {
          "indexed": true,
          "internalType": "address",
          "name": "owner",
          "type": "address"
        },
        {
          "indexed": true,
          "internalType": "address",
          "name": "approved",
          "type": "address"
        },
        {
          "indexed": true,
          "internalType": "uint256",
          "name": "tokenId",
          "type": "uint256"
        }
      ],
      "name": "Approval",
      "type": "event"
    },
    {
      "anonymous": false,
      "inputs": [
        {
          "indexed": true,
          "internalType": "address",
          "name": "owner",
          "type": "address"
        },
        {
          "indexed": true,
          "internalType": "address",
          "name": "operator",
          "type": "address"
        },
        {
          "indexed": false,
          "internalType": "bool",
          "name": "approved",
          "type": "bool"
        }
      ],
      "name": "ApprovalForAll",
      "type": "event"
    },
    {
      "anonymous": false,
      "inputs": [
        {
          "indexed": true,
          "internalType": "address",
          "name": "previousOwner",
          "type": "address"
        },
        {
          "indexed": true,
          "internalType": "address",
          "name": "newOwner",
          "type": "address"
        }
      ],
      "name": "OwnershipTransferred",
      "type": "event"
    },
    {
      "anonymous": false,
      "inputs": [
        {
          "indexed": true,
          "internalType": "address",
          "name": "from",
          "type": "address"
        },
        {
          "indexed": true,
          "internalType": "address",
          "name": "to",
          "type": "address"
        },
        {
          "indexed": true,
          "internalType": "uint256",
          "name": "tokenId",
          "type": "uint256"
        }
      ],
      "name": "Transfer",
      "type": "event"
    },
    {
      "inputs": [],
      "name": "_tokenIdCounter",
      "outputs": [
        {
          "internalType": "uint256",
          "name": "_value",
          "type": "uint256"
        }
      ],
      "stateMutability": "view",
      "type": "function"
    },
    {
      "inputs": [
        {
          "internalType": "address",
          "name": "to",
          "type": "address"
        },
        {
          "internalType": "uint256",
          "name": "tokenId",
          "type": "uint256"
        }
      ],
      "name": "approve",
      "outputs": [],
      "stateMutability": "nonpayable",
      "type": "function"
    },
    {
      "inputs": [
        {
          "internalType": "address",
          "name": "owner",
          "type": "address"
        }
      ],
      "name": "balanceOf",
      "outputs": [
        {
          "internalType": "uint256",
          "name": "",
          "type": "uint256"
        }
      ],
      "stateMutability": "view",
      "type": "function"
    },
    {
      "inputs": [],
      "name": "communityToken",
      "outputs": [
        {
          "internalType": "contract ERC20",
          "name": "",
          "type": "address"
        }
      ],
      "stateMutability": "view",
      "type": "function"
    },
    {
      "inputs": [
        {
          "internalType": "uint256",
          "name": "tokenId",
          "type": "uint256"
        }
      ],
      "name": "getApproved",
      "outputs": [
        {
          "internalType": "address",
          "name": "",
          "type": "address"
        }
      ],
      "stateMutability": "view",
      "type": "function"
    },
    {
      "inputs": [
        {
          "internalType": "contract ERC20",
          "name": "_communityToken",
          "type": "address"
        },
        {
          "internalType": "uint256",
          "name": "_mintPrice",
          "type": "uint256"
        }
      ],
      "name": "initialize",
      "outputs": [],
      "stateMutability": "nonpayable",
      "type": "function"
    },
    {
      "inputs": [
        {
          "internalType": "address",
          "name": "owner",
          "type": "address"
        },
        {
          "internalType": "address",
          "name": "operator",
          "type": "address"
        }
      ],
      "name": "isApprovedForAll",
      "outputs": [
        {
          "internalType": "bool",
          "name": "",
          "type": "bool"
        }
      ],
      "stateMutability": "view",
      "type": "function"
    },
    {
      "inputs": [
        {
          "internalType": "string",
          "name": "_uri",
          "type": "string"
        }
      ],
      "name": "mint",
      "outputs": [],
      "stateMutability": "nonpayable",
      "type": "function"
    },
    {
      "inputs": [],
      "name": "mintEnabled",
      "outputs": [
        {
          "internalType": "bool",
          "name": "",
          "type": "bool"
        }
      ],
      "stateMutability": "view",
      "type": "function"
    },
    {
      "inputs": [],
      "name": "mintPrice",
      "outputs": [
        {
          "internalType": "uint256",
          "name": "",
          "type": "uint256"
        }
      ],
      "stateMutability": "view",
      "type": "function"
    },
    {
      "inputs": [],
      "name": "name",
      "outputs": [
        {
          "internalType": "string",
          "name": "",
          "type": "string"
        }
      ],
      "stateMutability": "view",
      "type": "function"
    },
    {
      "inputs": [],
      "name": "owner",
      "outputs": [
        {
          "internalType": "address",
          "name": "",
          "type": "address"
        }
      ],
      "stateMutability": "view",
      "type": "function"
    },
    {
      "inputs": [
        {
          "internalType": "uint256",
          "name": "tokenId",
          "type": "uint256"
        }
      ],
      "name": "ownerOf",
      "outputs": [
        {
          "internalType": "address",
          "name": "",
          "type": "address"
        }
      ],
      "stateMutability": "view",
      "type": "function"
    },
    {
      "inputs": [],
      "name": "renounceOwnership",
      "outputs": [],
      "stateMutability": "nonpayable",
      "type": "function"
    },
    {
      "inputs": [
        {
          "internalType": "address",
          "name": "to",
          "type": "address"
        },
        {
          "internalType": "string",
          "name": "uri",
          "type": "string"
        }
      ],
      "name": "safeMint",
      "outputs": [],
      "stateMutability": "nonpayable",
      "type": "function"
    },
    {
      "inputs": [
        {
          "internalType": "address",
          "name": "from",
          "type": "address"
        },
        {
          "internalType": "address",
          "name": "to",
          "type": "address"
        },
        {
          "internalType": "uint256",
          "name": "tokenId",
          "type": "uint256"
        }
      ],
      "name": "safeTransferFrom",
      "outputs": [],
      "stateMutability": "nonpayable",
      "type": "function"
    },
    {
      "inputs": [
        {
          "internalType": "address",
          "name": "from",
          "type": "address"
        },
        {
          "internalType": "address",
          "name": "to",
          "type": "address"
        },
        {
          "internalType": "uint256",
          "name": "tokenId",
          "type": "uint256"
        },
        {
          "internalType": "bytes",
          "name": "_data",
          "type": "bytes"
        }
      ],
      "name": "safeTransferFrom",
      "outputs": [],
      "stateMutability": "nonpayable",
      "type": "function"
    },
    {
      "inputs": [
        {
          "internalType": "address",
          "name": "operator",
          "type": "address"
        },
        {
          "internalType": "bool",
          "name": "approved",
          "type": "bool"
        }
      ],
      "name": "setApprovalForAll",
      "outputs": [],
      "stateMutability": "nonpayable",
      "type": "function"
    },
    {
      "inputs": [
        {
          "internalType": "bool",
          "name": "_mintEnabled",
          "type": "bool"
        }
      ],
      "name": "setMintingStatus",
      "outputs": [],
      "stateMutability": "nonpayable",
      "type": "function"
    },
    {
      "inputs": [
        {
          "internalType": "bytes4",
          "name": "interfaceId",
          "type": "bytes4"
        }
      ],
      "name": "supportsInterface",
      "outputs": [
        {
          "internalType": "bool",
          "name": "",
          "type": "bool"
        }
      ],
      "stateMutability": "view",
      "type": "function"
    },
    {
      "inputs": [],
      "name": "symbol",
      "outputs": [
        {
          "internalType": "string",
          "name": "",
          "type": "string"
        }
      ],
      "stateMutability": "view",
      "type": "function"
    },
    {
      "inputs": [
        {
          "internalType": "uint256",
          "name": "index",
          "type": "uint256"
        }
      ],
      "name": "tokenByIndex",
      "outputs": [
        {
          "internalType": "uint256",
          "name": "",
          "type": "uint256"
        }
      ],
      "stateMutability": "view",
      "type": "function"
    },
    {
      "inputs": [
        {
          "internalType": "address",
          "name": "owner",
          "type": "address"
        },
        {
          "internalType": "uint256",
          "name": "index",
          "type": "uint256"
        }
      ],
      "name": "tokenOfOwnerByIndex",
      "outputs": [
        {
          "internalType": "uint256",
          "name": "",
          "type": "uint256"
        }
      ],
      "stateMutability": "view",
      "type": "function"
    },
    {
      "inputs": [
        {
          "internalType": "uint256",
          "name": "tokenId",
          "type": "uint256"
        }
      ],
      "name": "tokenURI",
      "outputs": [
        {
          "internalType": "string",
          "name": "",
          "type": "string"
        }
      ],
      "stateMutability": "view",
      "type": "function"
    },
    {
      "inputs": [],
      "name": "totalSupply",
      "outputs": [
        {
          "internalType": "uint256",
          "name": "",
          "type": "uint256"
        }
      ],
      "stateMutability": "view",
      "type": "function"
    },
    {
      "inputs": [
        {
          "internalType": "address",
          "name": "from",
          "type": "address"
        },
        {
          "internalType": "address",
          "name": "to",
          "type": "address"
        },
        {
          "internalType": "uint256",
          "name": "tokenId",
          "type": "uint256"
        }
      ],
      "name": "transferFrom",
      "outputs": [],
      "stateMutability": "nonpayable",
      "type": "function"
    },
    {
      "inputs": [
        {
          "internalType": "address",
          "name": "newOwner",
          "type": "address"
        }
      ],
      "name": "transferOwnership",
      "outputs": [],
      "stateMutability": "nonpayable",
      "type": "function"
    },
    {
      "inputs": [],
      "name": "withdrawMintFee",
      "outputs": [],
      "stateMutability": "nonpayable",
      "type": "function"
    }
  ],
  "bytecode": "0x608060405234801561001057600080fd5b50614706806100206000396000f3fe608060405234801561001057600080fd5b50600436106101c45760003560e01c8063734b46fa116100f9578063c87b56dd11610097578063d204c45e11610071578063d204c45e146104e1578063d85d3d27146104fd578063e985e9c514610519578063f2fde38b14610549576101c4565b8063c87b56dd14610477578063cd6dc687146104a7578063d1239730146104c3576101c4565b80638da5cb5b116100d35780638da5cb5b1461040357806395d89b4114610421578063a22cb4651461043f578063b88d4fde1461045b576101c4565b8063734b46fa146103bf5780637420aa36146103c957806384c4bd4b146103e5576101c4565b80632f745c59116101665780636352211e116101405780636352211e146103375780636817c76c1461036757806370a0823114610385578063715018a6146103b5576101c4565b80632f745c59146102bb57806342842e0e146102eb5780634f6ccce714610307576101c4565b8063095ea7b3116101a2578063095ea7b31461024757806318160ddd1461026357806323b872dd1461028157806329aa16171461029d576101c4565b806301ffc9a7146101c957806306fdde03146101f9578063081812fc14610217575b600080fd5b6101e360048036038101906101de91906131f2565b610565565b6040516101f09190613825565b60405180910390f35b610201610577565b60405161020e919061385b565b60405180910390f35b610231600480360381019061022c91906132c1565b610609565b60405161023e919061375e565b60405180910390f35b610261600480360381019061025c9190613164565b61068e565b005b61026b6107a6565b6040516102789190613b7d565b60405180910390f35b61029b6004803603810190610296919061300a565b6107b3565b005b6102a5610813565b6040516102b29190613840565b60405180910390f35b6102d560048036038101906102d09190613164565b61083a565b6040516102e29190613b7d565b60405180910390f35b6103056004803603810190610300919061300a565b6108df565b005b610321600480360381019061031c91906132c1565b6108ff565b60405161032e9190613b7d565b60405180910390f35b610351600480360381019061034c91906132c1565b610996565b60405161035e919061375e565b60405180910390f35b61036f610a48565b60405161037c9190613b7d565b60405180910390f35b61039f600480360381019061039a9190612fa5565b610a4f565b6040516103ac9190613b7d565b60405180910390f35b6103bd610b07565b005b6103c7610b8f565b005b6103e360048036038101906103de91906131a0565b610d76565b005b6103ed610e10565b6040516103fa9190613b7d565b60405180910390f35b61040b610e1d565b604051610418919061375e565b60405180910390f35b610429610e47565b604051610436919061385b565b60405180910390f35b610459600480360381019061045491906130d4565b610ed9565b005b61047560048036038101906104709190613059565b610eef565b005b610491600480360381019061048c91906132c1565b610f51565b60405161049e919061385b565b60405180910390f35b6104c160048036038101906104bc9190613244565b610f63565b005b6104cb61111f565b6040516104d89190613825565b60405180910390f35b6104fb60048036038101906104f69190613110565b611133565b005b61051760048036038101906105129190613280565b611232565b005b610533600480360381019061052e9190612fce565b6113bd565b6040516105409190613825565b60405180910390f35b610563600480360381019061055e9190612fa5565b611451565b005b600061057082611549565b9050919050565b60606065805461058690613e09565b80601f01602080910402602001604051908101604052809291908181526020018280546105b290613e09565b80156105ff5780601f106105d4576101008083540402835291602001916105ff565b820191906000526020600020905b8154815290600101906020018083116105e257829003601f168201915b5050505050905090565b6000610614826115c3565b610653576040517f08c379a000000000000000000000000000000000000000000000000000000000815260040161064a90613a7d565b60405180910390fd5b6069600083815260200190815260200160002060009054906101000a900473ffffffffffffffffffffffffffffffffffffffff169050919050565b600061069982610996565b90508073ffffffffffffffffffffffffffffffffffffffff168373ffffffffffffffffffffffffffffffffffffffff16141561070a576040517f08c379a000000000000000000000000000000000000000000000000000000000815260040161070190613afd565b60405180910390fd5b8073ffffffffffffffffffffffffffffffffffffffff1661072961162f565b73ffffffffffffffffffffffffffffffffffffffff16148061075857506107578161075261162f565b6113bd565b5b610797576040517f08c379a000000000000000000000000000000000000000000000000000000000815260040161078e9061397d565b60405180910390fd5b6107a18383611637565b505050565b600060cb80549050905090565b6107c46107be61162f565b826116f0565b610803576040517f08c379a00000000000000000000000000000000000000000000000000000000081526004016107fa90613b1d565b60405180910390fd5b61080e8383836117ce565b505050565b61012f60009054906101000a900473ffffffffffffffffffffffffffffffffffffffff1681565b600061084583610a4f565b8210610886576040517f08c379a000000000000000000000000000000000000000000000000000000000815260040161087d9061387d565b60405180910390fd5b60c960008473ffffffffffffffffffffffffffffffffffffffff1673ffffffffffffffffffffffffffffffffffffffff168152602001908152602001600020600083815260200190815260200160002054905092915050565b6108fa83838360405180602001604052806000815250610eef565b505050565b60006109096107a6565b821061094a576040517f08c379a000000000000000000000000000000000000000000000000000000000815260040161094190613b3d565b60405180910390fd5b60cb8281548110610984577f4e487b7100000000000000000000000000000000000000000000000000000000600052603260045260246000fd5b90600052602060002001549050919050565b6000806067600084815260200190815260200160002060009054906101000a900473ffffffffffffffffffffffffffffffffffffffff169050600073ffffffffffffffffffffffffffffffffffffffff168173ffffffffffffffffffffffffffffffffffffffff161415610a3f576040517f08c379a0000000000000000000000000000000000000000000000000000000008152600401610a36906139dd565b60405180910390fd5b80915050919050565b61012e5481565b60008073ffffffffffffffffffffffffffffffffffffffff168273ffffffffffffffffffffffffffffffffffffffff161415610ac0576040517f08c379a0000000000000000000000000000000000000000000000000000000008152600401610ab7906139bd565b60405180910390fd5b606860008373ffffffffffffffffffffffffffffffffffffffff1673ffffffffffffffffffffffffffffffffffffffff168152602001908152602001600020549050919050565b610b0f61162f565b73ffffffffffffffffffffffffffffffffffffffff16610b2d610e1d565b73ffffffffffffffffffffffffffffffffffffffff1614610b83576040517f08c379a0000000000000000000000000000000000000000000000000000000008152600401610b7a90613a9d565b60405180910390fd5b610b8d6000611a35565b565b610b9761162f565b73ffffffffffffffffffffffffffffffffffffffff16610bb5610e1d565b73ffffffffffffffffffffffffffffffffffffffff1614610c0b576040517f08c379a0000000000000000000000000000000000000000000000000000000008152600401610c0290613a9d565b60405180910390fd5b600061012f60009054906101000a900473ffffffffffffffffffffffffffffffffffffffff1673ffffffffffffffffffffffffffffffffffffffff166370a08231306040518263ffffffff1660e01b8152600401610c69919061375e565b60206040518083038186803b158015610c8157600080fd5b505afa158015610c95573d6000803e3d6000fd5b505050506040513d601f19601f82011682018060405250810190610cb991906132ea565b905061012f60009054906101000a900473ffffffffffffffffffffffffffffffffffffffff1673ffffffffffffffffffffffffffffffffffffffff1663a9059cbb610d02610e1d565b836040518363ffffffff1660e01b8152600401610d209291906137fc565b602060405180830381600087803b158015610d3a57600080fd5b505af1158015610d4e573d6000803e3d6000fd5b505050506040513d601f19601f82011682018060405250810190610d7291906131c9565b5050565b610d7e61162f565b73ffffffffffffffffffffffffffffffffffffffff16610d9c610e1d565b73ffffffffffffffffffffffffffffffffffffffff1614610df2576040517f08c379a0000000000000000000000000000000000000000000000000000000008152600401610de990613a9d565b60405180910390fd5b8061012f60146101000a81548160ff02191690831515021790555050565b61012d8060000154905081565b600060fb60009054906101000a900473ffffffffffffffffffffffffffffffffffffffff16905090565b606060668054610e5690613e09565b80601f0160208091040260200160405190810160405280929190818152602001828054610e8290613e09565b8015610ecf5780601f10610ea457610100808354040283529160200191610ecf565b820191906000526020600020905b815481529060010190602001808311610eb257829003601f168201915b5050505050905090565b610eeb610ee461162f565b8383611afb565b5050565b610f00610efa61162f565b836116f0565b610f3f576040517f08c379a0000000000000000000000000000000000000000000000000000000008152600401610f3690613b1d565b60405180910390fd5b610f4b84848484611c68565b50505050565b6060610f5c82611cc4565b9050919050565b600060019054906101000a900460ff16610f8b5760008054906101000a900460ff1615610f94565b610f93611e16565b5b610fd3576040517f08c379a0000000000000000000000000000000000000000000000000000000008152600401610fca90613a1d565b60405180910390fd5b60008060019054906101000a900460ff161590508015611023576001600060016101000a81548160ff02191690831515021790555060016000806101000a81548160ff0219169083151502179055505b6110976040518060400160405280601281526020017f447261676f6e42616c6c53757065724e465400000000000000000000000000008152506040518060400160405280600681526020017f4442534e46540000000000000000000000000000000000000000000000000000815250611e27565b61109f611e84565b6110a7611ed5565b6110af611f26565b8161012e819055508261012f60006101000a81548173ffffffffffffffffffffffffffffffffffffffff021916908373ffffffffffffffffffffffffffffffffffffffff160217905550801561111a5760008060016101000a81548160ff0219169083151502179055505b505050565b61012f60149054906101000a900460ff1681565b61113b61162f565b73ffffffffffffffffffffffffffffffffffffffff16611159610e1d565b73ffffffffffffffffffffffffffffffffffffffff16146111af576040517f08c379a00000000000000000000000000000000000000000000000000000000081526004016111a690613a9d565b60405180910390fd5b61012f60149054906101000a900460ff166111ff576040517f08c379a00000000000000000000000000000000000000000000000000000000081526004016111f690613abd565b60405180910390fd5b600061120c61012d611f7f565b905061121961012d611f8d565b6112238382611fa3565b61122d8183611fc1565b505050565b61012f60149054906101000a900460ff16611282576040517f08c379a000000000000000000000000000000000000000000000000000000000815260040161127990613abd565b60405180910390fd5b600061128d33610a4f565b146112cd576040517f08c379a00000000000000000000000000000000000000000000000000000000081526004016112c49061399d565b60405180910390fd5b61012f60009054906101000a900473ffffffffffffffffffffffffffffffffffffffff1673ffffffffffffffffffffffffffffffffffffffff166323b872dd333061012e546040518463ffffffff1660e01b815260040161133093929190613779565b602060405180830381600087803b15801561134a57600080fd5b505af115801561135e573d6000803e3d6000fd5b505050506040513d601f19601f8201168201806040525081019061138291906131c9565b50600061139061012d611f7f565b905061139d61012d611f8d565b6113a73382611fa3565b6113b18183611fc1565b6113b9612035565b5050565b6000606a60008473ffffffffffffffffffffffffffffffffffffffff1673ffffffffffffffffffffffffffffffffffffffff16815260200190815260200160002060008373ffffffffffffffffffffffffffffffffffffffff1673ffffffffffffffffffffffffffffffffffffffff16815260200190815260200160002060009054906101000a900460ff16905092915050565b61145961162f565b73ffffffffffffffffffffffffffffffffffffffff16611477610e1d565b73ffffffffffffffffffffffffffffffffffffffff16146114cd576040517f08c379a00000000000000000000000000000000000000000000000000000000081526004016114c490613a9d565b60405180910390fd5b600073ffffffffffffffffffffffffffffffffffffffff168173ffffffffffffffffffffffffffffffffffffffff16141561153d576040517f08c379a0000000000000000000000000000000000000000000000000000000008152600401611534906138bd565b60405180910390fd5b61154681611a35565b50565b60007f780e9d63000000000000000000000000000000000000000000000000000000007bffffffffffffffffffffffffffffffffffffffffffffffffffffffff1916827bffffffffffffffffffffffffffffffffffffffffffffffffffffffff191614806115bc57506115bb8261205c565b5b9050919050565b60008073ffffffffffffffffffffffffffffffffffffffff166067600084815260200190815260200160002060009054906101000a900473ffffffffffffffffffffffffffffffffffffffff1673ffffffffffffffffffffffffffffffffffffffff1614159050919050565b600033905090565b816069600083815260200190815260200160002060006101000a81548173ffffffffffffffffffffffffffffffffffffffff021916908373ffffffffffffffffffffffffffffffffffffffff160217905550808273ffffffffffffffffffffffffffffffffffffffff166116aa83610996565b73ffffffffffffffffffffffffffffffffffffffff167f8c5be1e5ebec7d5bd14f71427d1e84f3dd0314c0f7b2291e5b200ac8c7c3b92560405160405180910390a45050565b60006116fb826115c3565b61173a576040517f08c379a00000000000000000000000000000000000000000000000000000000081526004016117319061395d565b60405180910390fd5b600061174583610996565b90508073ffffffffffffffffffffffffffffffffffffffff168473ffffffffffffffffffffffffffffffffffffffff1614806117b457508373ffffffffffffffffffffffffffffffffffffffff1661179c84610609565b73ffffffffffffffffffffffffffffffffffffffff16145b806117c557506117c481856113bd565b5b91505092915050565b8273ffffffffffffffffffffffffffffffffffffffff166117ee82610996565b73ffffffffffffffffffffffffffffffffffffffff1614611844576040517f08c379a000000000000000000000000000000000000000000000000000000000815260040161183b906138dd565b60405180910390fd5b600073ffffffffffffffffffffffffffffffffffffffff168273ffffffffffffffffffffffffffffffffffffffff1614156118b4576040517f08c379a00000000000000000000000000000000000000000000000000000000081526004016118ab9061391d565b60405180910390fd5b6118bf83838361213e565b6118ca600082611637565b6001606860008573ffffffffffffffffffffffffffffffffffffffff1673ffffffffffffffffffffffffffffffffffffffff168152602001908152602001600020600082825461191a9190613ce9565b925050819055506001606860008473ffffffffffffffffffffffffffffffffffffffff1673ffffffffffffffffffffffffffffffffffffffff16815260200190815260200160002060008282546119719190613c62565b92505081905550816067600083815260200190815260200160002060006101000a81548173ffffffffffffffffffffffffffffffffffffffff021916908373ffffffffffffffffffffffffffffffffffffffff160217905550808273ffffffffffffffffffffffffffffffffffffffff168473ffffffffffffffffffffffffffffffffffffffff167fddf252ad1be2c89b69c2b068fc378daa952ba7f163c4a11628f55a4df523b3ef60405160405180910390a4611a3083838361214e565b505050565b600060fb60009054906101000a900473ffffffffffffffffffffffffffffffffffffffff1690508160fb60006101000a81548173ffffffffffffffffffffffffffffffffffffffff021916908373ffffffffffffffffffffffffffffffffffffffff1602179055508173ffffffffffffffffffffffffffffffffffffffff168173ffffffffffffffffffffffffffffffffffffffff167f8be0079c531659141344cd1fd0a4f28419497f9722a3daafe3b4186f6b6457e060405160405180910390a35050565b8173ffffffffffffffffffffffffffffffffffffffff168373ffffffffffffffffffffffffffffffffffffffff161415611b6a576040517f08c379a0000000000000000000000000000000000000000000000000000000008152600401611b619061393d565b60405180910390fd5b80606a60008573ffffffffffffffffffffffffffffffffffffffff1673ffffffffffffffffffffffffffffffffffffffff16815260200190815260200160002060008473ffffffffffffffffffffffffffffffffffffffff1673ffffffffffffffffffffffffffffffffffffffff16815260200190815260200160002060006101000a81548160ff0219169083151502179055508173ffffffffffffffffffffffffffffffffffffffff168373ffffffffffffffffffffffffffffffffffffffff167f17307eab39ab6107e8899845ad3d59bd9653f200f220920489ca2b5937696c3183604051611c5b9190613825565b60405180910390a3505050565b611c738484846117ce565b611c7f84848484612153565b611cbe576040517f08c379a0000000000000000000000000000000000000000000000000000000008152600401611cb59061389d565b60405180910390fd5b50505050565b6060611ccf826115c3565b611d0e576040517f08c379a0000000000000000000000000000000000000000000000000000000008152600401611d0590613a5d565b60405180910390fd5b6000609760008481526020019081526020016000208054611d2e90613e09565b80601f0160208091040260200160405190810160405280929190818152602001828054611d5a90613e09565b8015611da75780601f10611d7c57610100808354040283529160200191611da7565b820191906000526020600020905b815481529060010190602001808311611d8a57829003601f168201915b505050505090506000611db86122ea565b9050600081511415611dce578192505050611e11565b600082511115611e03578082604051602001611deb92919061373a565b60405160208183030381529060405292505050611e11565b611e0c84612301565b925050505b919050565b6000611e21306123a8565b15905090565b600060019054906101000a900460ff16611e76576040517f08c379a0000000000000000000000000000000000000000000000000000000008152600401611e6d90613b5d565b60405180910390fd5b611e8082826123cb565b5050565b600060019054906101000a900460ff16611ed3576040517f08c379a0000000000000000000000000000000000000000000000000000000008152600401611eca90613b5d565b60405180910390fd5b565b600060019054906101000a900460ff16611f24576040517f08c379a0000000000000000000000000000000000000000000000000000000008152600401611f1b90613b5d565b60405180910390fd5b565b600060019054906101000a900460ff16611f75576040517f08c379a0000000000000000000000000000000000000000000000000000000008152600401611f6c90613b5d565b60405180910390fd5b611f7d61244c565b565b600081600001549050919050565b6001816000016000828254019250508190555050565b611fbd8282604051806020016040528060008152506124ad565b5050565b611fca826115c3565b612009576040517f08c379a0000000000000000000000000000000000000000000000000000000008152600401612000906139fd565b60405180910390fd5b80609760008481526020019081526020016000209080519060200190612030929190612d8a565b505050565b606461012e546120459190613cb8565b61012e546120539190613c62565b61012e81905550565b60007f80ac58cd000000000000000000000000000000000000000000000000000000007bffffffffffffffffffffffffffffffffffffffffffffffffffffffff1916827bffffffffffffffffffffffffffffffffffffffffffffffffffffffff1916148061212757507f5b5e139f000000000000000000000000000000000000000000000000000000007bffffffffffffffffffffffffffffffffffffffffffffffffffffffff1916827bffffffffffffffffffffffffffffffffffffffffffffffffffffffff1916145b80612137575061213682612508565b5b9050919050565b612149838383612572565b505050565b505050565b60006121748473ffffffffffffffffffffffffffffffffffffffff166123a8565b156122dd578373ffffffffffffffffffffffffffffffffffffffff1663150b7a0261219d61162f565b8786866040518563ffffffff1660e01b81526004016121bf94939291906137b0565b602060405180830381600087803b1580156121d957600080fd5b505af192505050801561220a57506040513d601f19601f82011682018060405250810190612207919061321b565b60015b61228d573d806000811461223a576040519150601f19603f3d011682016040523d82523d6000602084013e61223f565b606091505b50600081511415612285576040517f08c379a000000000000000000000000000000000000000000000000000000000815260040161227c9061389d565b60405180910390fd5b805181602001fd5b63150b7a0260e01b7bffffffffffffffffffffffffffffffffffffffffffffffffffffffff1916817bffffffffffffffffffffffffffffffffffffffffffffffffffffffff1916149150506122e2565b600190505b949350505050565b606060405180602001604052806000815250905090565b606061230c826115c3565b61234b576040517f08c379a000000000000000000000000000000000000000000000000000000000815260040161234290613add565b60405180910390fd5b60006123556122ea565b9050600081511161237557604051806020016040528060008152506123a0565b8061237f84612686565b60405160200161239092919061373a565b6040516020818303038152906040525b915050919050565b6000808273ffffffffffffffffffffffffffffffffffffffff163b119050919050565b600060019054906101000a900460ff1661241a576040517f08c379a000000000000000000000000000000000000000000000000000000000815260040161241190613b5d565b60405180910390fd5b8160659080519060200190612430929190612d8a565b508060669080519060200190612447929190612d8a565b505050565b600060019054906101000a900460ff1661249b576040517f08c379a000000000000000000000000000000000000000000000000000000000815260040161249290613b5d565b60405180910390fd5b6124ab6124a661162f565b611a35565b565b6124b78383612833565b6124c46000848484612153565b612503576040517f08c379a00000000000000000000000000000000000000000000000000000000081526004016124fa9061389d565b60405180910390fd5b505050565b60007f01ffc9a7000000000000000000000000000000000000000000000000000000007bffffffffffffffffffffffffffffffffffffffffffffffffffffffff1916827bffffffffffffffffffffffffffffffffffffffffffffffffffffffff1916149050919050565b61257d838383612a0d565b600073ffffffffffffffffffffffffffffffffffffffff168373ffffffffffffffffffffffffffffffffffffffff1614156125c0576125bb81612a12565b6125ff565b8173ffffffffffffffffffffffffffffffffffffffff168373ffffffffffffffffffffffffffffffffffffffff16146125fe576125fd8382612a5b565b5b5b600073ffffffffffffffffffffffffffffffffffffffff168273ffffffffffffffffffffffffffffffffffffffff1614156126425761263d81612bc8565b612681565b8273ffffffffffffffffffffffffffffffffffffffff168273ffffffffffffffffffffffffffffffffffffffff16146126805761267f8282612d0b565b5b5b505050565b606060008214156126ce576040518060400160405280600181526020017f3000000000000000000000000000000000000000000000000000000000000000815250905061282e565b600082905060005b600082146127005780806126e990613e6c565b915050600a826126f99190613cb8565b91506126d6565b60008167ffffffffffffffff811115612742577f4e487b7100000000000000000000000000000000000000000000000000000000600052604160045260246000fd5b6040519080825280601f01601f1916602001820160405280156127745781602001600182028036833780820191505090505b5090505b600085146128275760018261278d9190613ce9565b9150600a8561279c9190613eb5565b60306127a89190613c62565b60f81b8183815181106127e4577f4e487b7100000000000000000000000000000000000000000000000000000000600052603260045260246000fd5b60200101907effffffffffffffffffffffffffffffffffffffffffffffffffffffffffffff1916908160001a905350600a856128209190613cb8565b9450612778565b8093505050505b919050565b600073ffffffffffffffffffffffffffffffffffffffff168273ffffffffffffffffffffffffffffffffffffffff1614156128a3576040517f08c379a000000000000000000000000000000000000000000000000000000000815260040161289a90613a3d565b60405180910390fd5b6128ac816115c3565b156128ec576040517f08c379a00000000000000000000000000000000000000000000000000000000081526004016128e3906138fd565b60405180910390fd5b6128f86000838361213e565b6001606860008473ffffffffffffffffffffffffffffffffffffffff1673ffffffffffffffffffffffffffffffffffffffff16815260200190815260200160002060008282546129489190613c62565b92505081905550816067600083815260200190815260200160002060006101000a81548173ffffffffffffffffffffffffffffffffffffffff021916908373ffffffffffffffffffffffffffffffffffffffff160217905550808273ffffffffffffffffffffffffffffffffffffffff16600073ffffffffffffffffffffffffffffffffffffffff167fddf252ad1be2c89b69c2b068fc378daa952ba7f163c4a11628f55a4df523b3ef60405160405180910390a4612a096000838361214e565b5050565b505050565b60cb8054905060cc60008381526020019081526020016000208190555060cb81908060018154018082558091505060019003906000526020600020016000909190919091505550565b60006001612a6884610a4f565b612a729190613ce9565b9050600060ca6000848152602001908152602001600020549050818114612b5757600060c960008673ffffffffffffffffffffffffffffffffffffffff1673ffffffffffffffffffffffffffffffffffffffff16815260200190815260200160002060008481526020019081526020016000205490508060c960008773ffffffffffffffffffffffffffffffffffffffff1673ffffffffffffffffffffffffffffffffffffffff1681526020019081526020016000206000848152602001908152602001600020819055508160ca600083815260200190815260200160002081905550505b60ca60008481526020019081526020016000206000905560c960008573ffffffffffffffffffffffffffffffffffffffff1673ffffffffffffffffffffffffffffffffffffffff16815260200190815260200160002060008381526020019081526020016000206000905550505050565b6000600160cb80549050612bdc9190613ce9565b9050600060cc6000848152602001908152602001600020549050600060cb8381548110612c32577f4e487b7100000000000000000000000000000000000000000000000000000000600052603260045260246000fd5b906000526020600020015490508060cb8381548110612c7a577f4e487b7100000000000000000000000000000000000000000000000000000000600052603260045260246000fd5b90600052602060002001819055508160cc60008381526020019081526020016000208190555060cc60008581526020019081526020016000206000905560cb805480612cef577f4e487b7100000000000000000000000000000000000000000000000000000000600052603160045260246000fd5b6001900381819060005260206000200160009055905550505050565b6000612d1683610a4f565b90508160c960008573ffffffffffffffffffffffffffffffffffffffff1673ffffffffffffffffffffffffffffffffffffffff1681526020019081526020016000206000838152602001908152602001600020819055508060ca600084815260200190815260200160002081905550505050565b828054612d9690613e09565b90600052602060002090601f016020900481019282612db85760008555612dff565b82601f10612dd157805160ff1916838001178555612dff565b82800160010185558215612dff579182015b82811115612dfe578251825591602001919060010190612de3565b5b509050612e0c9190612e10565b5090565b5b80821115612e29576000816000905550600101612e11565b5090565b6000612e40612e3b84613bbd565b613b98565b905082815260208101848484011115612e5857600080fd5b612e63848285613dc7565b509392505050565b6000612e7e612e7984613bee565b613b98565b905082815260208101848484011115612e9657600080fd5b612ea1848285613dc7565b509392505050565b600081359050612eb88161465d565b92915050565b600081359050612ecd81614674565b92915050565b600081519050612ee281614674565b92915050565b600081359050612ef78161468b565b92915050565b600081519050612f0c8161468b565b92915050565b600082601f830112612f2357600080fd5b8135612f33848260208601612e2d565b91505092915050565b600081359050612f4b816146a2565b92915050565b600082601f830112612f6257600080fd5b8135612f72848260208601612e6b565b91505092915050565b600081359050612f8a816146b9565b92915050565b600081519050612f9f816146b9565b92915050565b600060208284031215612fb757600080fd5b6000612fc584828501612ea9565b91505092915050565b60008060408385031215612fe157600080fd5b6000612fef85828601612ea9565b925050602061300085828601612ea9565b9150509250929050565b60008060006060848603121561301f57600080fd5b600061302d86828701612ea9565b935050602061303e86828701612ea9565b925050604061304f86828701612f7b565b9150509250925092565b6000806000806080858703121561306f57600080fd5b600061307d87828801612ea9565b945050602061308e87828801612ea9565b935050604061309f87828801612f7b565b925050606085013567ffffffffffffffff8111156130bc57600080fd5b6130c887828801612f12565b91505092959194509250565b600080604083850312156130e757600080fd5b60006130f585828601612ea9565b925050602061310685828601612ebe565b9150509250929050565b6000806040838503121561312357600080fd5b600061313185828601612ea9565b925050602083013567ffffffffffffffff81111561314e57600080fd5b61315a85828601612f51565b9150509250929050565b6000806040838503121561317757600080fd5b600061318585828601612ea9565b925050602061319685828601612f7b565b9150509250929050565b6000602082840312156131b257600080fd5b60006131c084828501612ebe565b91505092915050565b6000602082840312156131db57600080fd5b60006131e984828501612ed3565b91505092915050565b60006020828403121561320457600080fd5b600061321284828501612ee8565b91505092915050565b60006020828403121561322d57600080fd5b600061323b84828501612efd565b91505092915050565b6000806040838503121561325757600080fd5b600061326585828601612f3c565b925050602061327685828601612f7b565b9150509250929050565b60006020828403121561329257600080fd5b600082013567ffffffffffffffff8111156132ac57600080fd5b6132b884828501612f51565b91505092915050565b6000602082840312156132d357600080fd5b60006132e184828501612f7b565b91505092915050565b6000602082840312156132fc57600080fd5b600061330a84828501612f90565b91505092915050565b61331c81613d1d565b82525050565b61332b81613d2f565b82525050565b600061333c82613c1f565b6133468185613c35565b9350613356818560208601613dd6565b61335f81613fa2565b840191505092915050565b61337381613da3565b82525050565b600061338482613c2a565b61338e8185613c46565b935061339e818560208601613dd6565b6133a781613fa2565b840191505092915050565b60006133bd82613c2a565b6133c78185613c57565b93506133d7818560208601613dd6565b80840191505092915050565b60006133f0602b83613c46565b91506133fb82613fb3565b604082019050919050565b6000613413603283613c46565b915061341e82614002565b604082019050919050565b6000613436602683613c46565b915061344182614051565b604082019050919050565b6000613459602583613c46565b9150613464826140a0565b604082019050919050565b600061347c601c83613c46565b9150613487826140ef565b602082019050919050565b600061349f602483613c46565b91506134aa82614118565b604082019050919050565b60006134c2601983613c46565b91506134cd82614167565b602082019050919050565b60006134e5602c83613c46565b91506134f082614190565b604082019050919050565b6000613508603883613c46565b9150613513826141df565b604082019050919050565b600061352b602b83613c46565b91506135368261422e565b604082019050919050565b600061354e602a83613c46565b91506135598261427d565b604082019050919050565b6000613571602983613c46565b915061357c826142cc565b604082019050919050565b6000613594602e83613c46565b915061359f8261431b565b604082019050919050565b60006135b7602e83613c46565b91506135c28261436a565b604082019050919050565b60006135da602083613c46565b91506135e5826143b9565b602082019050919050565b60006135fd603183613c46565b9150613608826143e2565b604082019050919050565b6000613620602c83613c46565b915061362b82614431565b604082019050919050565b6000613643602083613c46565b915061364e82614480565b602082019050919050565b6000613666601383613c46565b9150613671826144a9565b602082019050919050565b6000613689602f83613c46565b9150613694826144d2565b604082019050919050565b60006136ac602183613c46565b91506136b782614521565b604082019050919050565b60006136cf603183613c46565b91506136da82614570565b604082019050919050565b60006136f2602c83613c46565b91506136fd826145bf565b604082019050919050565b6000613715602b83613c46565b91506137208261460e565b604082019050919050565b61373481613d99565b82525050565b600061374682856133b2565b915061375282846133b2565b91508190509392505050565b60006020820190506137736000830184613313565b92915050565b600060608201905061378e6000830186613313565b61379b6020830185613313565b6137a8604083018461372b565b949350505050565b60006080820190506137c56000830187613313565b6137d26020830186613313565b6137df604083018561372b565b81810360608301526137f18184613331565b905095945050505050565b60006040820190506138116000830185613313565b61381e602083018461372b565b9392505050565b600060208201905061383a6000830184613322565b92915050565b6000602082019050613855600083018461336a565b92915050565b600060208201905081810360008301526138758184613379565b905092915050565b60006020820190508181036000830152613896816133e3565b9050919050565b600060208201905081810360008301526138b681613406565b9050919050565b600060208201905081810360008301526138d681613429565b9050919050565b600060208201905081810360008301526138f68161344c565b9050919050565b600060208201905081810360008301526139168161346f565b9050919050565b6000602082019050818103600083015261393681613492565b9050919050565b60006020820190508181036000830152613956816134b5565b9050919050565b60006020820190508181036000830152613976816134d8565b9050919050565b60006020820190508181036000830152613996816134fb565b9050919050565b600060208201905081810360008301526139b68161351e565b9050919050565b600060208201905081810360008301526139d681613541565b9050919050565b600060208201905081810360008301526139f681613564565b9050919050565b60006020820190508181036000830152613a1681613587565b9050919050565b60006020820190508181036000830152613a36816135aa565b9050919050565b60006020820190508181036000830152613a56816135cd565b9050919050565b60006020820190508181036000830152613a76816135f0565b9050919050565b60006020820190508181036000830152613a9681613613565b9050919050565b60006020820190508181036000830152613ab681613636565b9050919050565b60006020820190508181036000830152613ad681613659565b9050919050565b60006020820190508181036000830152613af68161367c565b9050919050565b60006020820190508181036000830152613b168161369f565b9050919050565b60006020820190508181036000830152613b36816136c2565b9050919050565b60006020820190508181036000830152613b56816136e5565b9050919050565b60006020820190508181036000830152613b7681613708565b9050919050565b6000602082019050613b92600083018461372b565b92915050565b6000613ba2613bb3565b9050613bae8282613e3b565b919050565b6000604051905090565b600067ffffffffffffffff821115613bd857613bd7613f73565b5b613be182613fa2565b9050602081019050919050565b600067ffffffffffffffff821115613c0957613c08613f73565b5b613c1282613fa2565b9050602081019050919050565b600081519050919050565b600081519050919050565b600082825260208201905092915050565b600082825260208201905092915050565b600081905092915050565b6000613c6d82613d99565b9150613c7883613d99565b9250827fffffffffffffffffffffffffffffffffffffffffffffffffffffffffffffffff03821115613cad57613cac613ee6565b5b828201905092915050565b6000613cc382613d99565b9150613cce83613d99565b925082613cde57613cdd613f15565b5b828204905092915050565b6000613cf482613d99565b9150613cff83613d99565b925082821015613d1257613d11613ee6565b5b828203905092915050565b6000613d2882613d79565b9050919050565b60008115159050919050565b60007fffffffff0000000000000000000000000000000000000000000000000000000082169050919050565b6000613d7282613d1d565b9050919050565b600073ffffffffffffffffffffffffffffffffffffffff82169050919050565b6000819050919050565b6000613dae82613db5565b9050919050565b6000613dc082613d79565b9050919050565b82818337600083830152505050565b60005b83811015613df4578082015181840152602081019050613dd9565b83811115613e03576000848401525b50505050565b60006002820490506001821680613e2157607f821691505b60208210811415613e3557613e34613f44565b5b50919050565b613e4482613fa2565b810181811067ffffffffffffffff82111715613e6357613e62613f73565b5b80604052505050565b6000613e7782613d99565b91507fffffffffffffffffffffffffffffffffffffffffffffffffffffffffffffffff821415613eaa57613ea9613ee6565b5b600182019050919050565b6000613ec082613d99565b9150613ecb83613d99565b925082613edb57613eda613f15565b5b828206905092915050565b7f4e487b7100000000000000000000000000000000000000000000000000000000600052601160045260246000fd5b7f4e487b7100000000000000000000000000000000000000000000000000000000600052601260045260246000fd5b7f4e487b7100000000000000000000000000000000000000000000000000000000600052602260045260246000fd5b7f4e487b7100000000000000000000000000000000000000000000000000000000600052604160045260246000fd5b6000601f19601f8301169050919050565b7f455243373231456e756d657261626c653a206f776e657220696e646578206f7560008201527f74206f6620626f756e6473000000000000000000000000000000000000000000602082015250565b7f4552433732313a207472616e7366657220746f206e6f6e20455243373231526560008201527f63656976657220696d706c656d656e7465720000000000000000000000000000602082015250565b7f4f776e61626c653a206e6577206f776e657220697320746865207a65726f206160008201527f6464726573730000000000000000000000000000000000000000000000000000602082015250565b7f4552433732313a207472616e736665722066726f6d20696e636f72726563742060008201527f6f776e6572000000000000000000000000000000000000000000000000000000602082015250565b7f4552433732313a20746f6b656e20616c7265616479206d696e74656400000000600082015250565b7f4552433732313a207472616e7366657220746f20746865207a65726f2061646460008201527f7265737300000000000000000000000000000000000000000000000000000000602082015250565b7f4552433732313a20617070726f766520746f2063616c6c657200000000000000600082015250565b7f4552433732313a206f70657261746f7220717565727920666f72206e6f6e657860008201527f697374656e7420746f6b656e0000000000000000000000000000000000000000602082015250565b7f4552433732313a20617070726f76652063616c6c6572206973206e6f74206f7760008201527f6e6572206e6f7220617070726f76656420666f7220616c6c0000000000000000602082015250565b7f436f6d6d756e697479206d656d62657273206e6f7420616c6c6f77656420746f60008201527f206d696e74207477696365000000000000000000000000000000000000000000602082015250565b7f4552433732313a2062616c616e636520717565727920666f7220746865207a6560008201527f726f206164647265737300000000000000000000000000000000000000000000602082015250565b7f4552433732313a206f776e657220717565727920666f72206e6f6e657869737460008201527f656e7420746f6b656e0000000000000000000000000000000000000000000000602082015250565b7f45524337323155524953746f726167653a2055524920736574206f66206e6f6e60008201527f6578697374656e7420746f6b656e000000000000000000000000000000000000602082015250565b7f496e697469616c697a61626c653a20636f6e747261637420697320616c72656160008201527f647920696e697469616c697a6564000000000000000000000000000000000000602082015250565b7f4552433732313a206d696e7420746f20746865207a65726f2061646472657373600082015250565b7f45524337323155524953746f726167653a2055524920717565727920666f722060008201527f6e6f6e6578697374656e7420746f6b656e000000000000000000000000000000602082015250565b7f4552433732313a20617070726f76656420717565727920666f72206e6f6e657860008201527f697374656e7420746f6b656e0000000000000000000000000000000000000000602082015250565b7f4f776e61626c653a2063616c6c6572206973206e6f7420746865206f776e6572600082015250565b7f4d696e74696e67206e6f7420656e61626c656400000000000000000000000000600082015250565b7f4552433732314d657461646174613a2055524920717565727920666f72206e6f60008201527f6e6578697374656e7420746f6b656e0000000000000000000000000000000000602082015250565b7f4552433732313a20617070726f76616c20746f2063757272656e74206f776e6560008201527f7200000000000000000000000000000000000000000000000000000000000000602082015250565b7f4552433732313a207472616e736665722063616c6c6572206973206e6f74206f60008201527f776e6572206e6f7220617070726f766564000000000000000000000000000000602082015250565b7f455243373231456e756d657261626c653a20676c6f62616c20696e646578206f60008201527f7574206f6620626f756e64730000000000000000000000000000000000000000602082015250565b7f496e697469616c697a61626c653a20636f6e7472616374206973206e6f74206960008201527f6e697469616c697a696e67000000000000000000000000000000000000000000602082015250565b61466681613d1d565b811461467157600080fd5b50565b61467d81613d2f565b811461468857600080fd5b50565b61469481613d3b565b811461469f57600080fd5b50565b6146ab81613d67565b81146146b657600080fd5b50565b6146c281613d99565b81146146cd57600080fd5b5056fea26469706673582212205cdaa0f4bcd45424b9ca0db8739e0f7b124991ae044402c8967d2813b56314a564736f6c63430008020033",
  "linkReferences": {},
  "deployedLinkReferences": {}
}